:100000000C9477000C940C010C940C010C940C01D2
:100010000C940C010C940C010C940C010C940C012C
:100020000C940C010C940C010C940C010C940C011C
:100030000C940C010C940C010C940C010C940C010C
:100040000C940C010C940C010C940C010C940C01FC
:100050000C940C010C940C010C940C010C940C01EC
:100060000C940C010C940C010C940C010C940C01DC
:100070000C940C010C940C010C940C010C940C01CC
:100080000C940C010C940C010C940C010C940C01BC
:100090000C940C010C940C010C940C010C940C01AC
:1000A0000C940C010C940C010C940C010C940C019C
:1000B0000C940C010C940C010C940C010C940C018C
:1000C0000C940C010C940C010C940C010C940C017C
:1000D0000C940C010C940C010C940C010C940C016C
:1000E0000C940C010C940C0140004002800011247F
:1000F0001FBECFEFCDBFDFE7DEBFE8EEF0E040E0B0
:1001000019C0B791A79137912791079107FD0EC0AC
:1001100097918791EF01F92FE82F0BBF07900D9270
:10012000A217B307D9F7FE011BBE04C01D92A21788
:10013000B307E1F7ED3EF40721F70E94A3000C940A
:06014000A100F894FFCFBE
:100146000E94D40081E080930A0600E016E0C0E039
:10015600D0E40E9408018823E1F3F801808991899F
:10016600809300409093014083E00E94F4008881D0
:100176000E94F400809101400E94F4008CEF0E94DE
:04018600F400E7CFCB
:10018A00E0E6F4E08489887F848B84898460848BA8
:0E019A0081E0809340048489877F848B0895E0
:1001A8000E94FC000E94C50081E08093A0000E948C
:0801B800EB000E94E000089535
:1001C000E0E2F8E081E493E08087918780E4868331
:0601D00083E0878308951F
:1001D600E0E0F6E081E0828383E0808384E080874C
:0201E60008957A
:1001E800E0E2F8E0948195FFFDCF8093220808951E
:0C01F80061E081E690E00E9402010895A1
:0C020400DC0128ED209334006C93089579
:0802100080910D068170089534
:040218000C94000042
:02000004008278
:090000000000000000C000000037
:02000004008377
:040000005CC5C55CBA
:00000001FF
