:100000000C9477000C9410010C9410010C941001C6
:100010000C9410010C9410010C9410010C9410011C
:100020000C9410010C9410010C9410010C9410010C
:100030000C9410010C9410010C9410010C941001FC
:100040000C9410010C9410010C9410010C941001EC
:100050000C9410010C9410010C9410010C941001DC
:100060000C9410010C9410010C9410010C941001CC
:100070000C9410010C9410010C9410010C941001BC
:100080000C9410010C9410010C9410010C941001AC
:100090000C9410010C9410010C9410010C9410019C
:1000A0000C9410010C9410010C9410010C9410018C
:1000B0000C9410010C9410010C9410010C9410017C
:1000C0000C9410010C9410010C9410010C9410016C
:1000D0000C9410010C9410010C9410010C9410015C
:1000E0000C9410010C941001400040028000112477
:1000F0001FBECFEFCDBFDFE7DEBFE8EEF0E040E0B0
:1001000019C0B791A79137912791079107FD0EC0AC
:1001100097918791EF01F92FE82F0BBF07900D9270
:10012000A217B307D9F7FE011BBE04C01D92A21788
:10013000B307E1F7ED3EF40721F70E94A3000C940A
:06014000A100F894FFCFBE
:100146000E94D70081E080930A06C0E0D6E00E94B4
:100156000C018823E1F38889998980930040909364
:10016600014083E00E94FE00809100409091014092
:100176000E94FE008091004090910140892F0E94CC
:0A018600FE008CEF0E94FE00E2CFA5
:1001900081E080934104E0E6F4E08389887F838BEB
:0E01A00083898460838B8389877F838B089596
:1001AE000E94EE000E94C80081E08093A0000E9491
:0801BE00F6000E94E300089521
:1001C600E0E2F8E08BE890E08087918780E4868320
:0601D60083E08783089519
:1001DC00609168006C6088E690E00E9406010895CA
:1001EC00E0E0F6E081E0828383E0808380870895FD
:1001FC00E0E2F8E0948195FFFDCF8093220808950A
:0C020C00DC0128ED209334006C93089571
:0802180080910D06817008952C
:040220000C9400003A
:00000001FF
